{
  "_format": "hh-sol-artifact-1",
  "contractName": "ComplianceSBT",
  "sourceName": "contracts/ComplianceSBT.sol",
  "abi": [
    {
      "inputs": [
        {
          "internalType": "address",
          "name": "_revocationRegistry",
          "type": "address"
        },
        {
          "internalType": "address",
          "name": "_riskOracle",
          "type": "address"
        }
      ],
      "stateMutability": "nonpayable",
      "type": "constructor"
    },
    {
      "inputs": [
        {
          "internalType": "address",
          "name": "sender",
          "type": "address"
        },
        {
          "internalType": "uint256",
          "name": "tokenId",
          "type": "uint256"
        },
        {
          "internalType": "address",
          "name": "owner",
          "type": "address"
        }
      ],
      "name": "ERC721IncorrectOwner",
      "type": "error"
    },
    {
      "inputs": [
        {
          "internalType": "address",
          "name": "operator",
          "type": "address"
        },
        {
          "internalType": "uint256",
          "name": "tokenId",
          "type": "uint256"
        }
      ],
      "name": "ERC721InsufficientApproval",
      "type": "error"
    },
    {
      "inputs": [
        {
          "internalType": "address",
          "name": "approver",
          "type": "address"
        }
      ],
      "name": "ERC721InvalidApprover",
      "type": "error"
    },
    {
      "inputs": [
        {
          "internalType": "address",
          "name": "operator",
          "type": "address"
        }
      ],
      "name": "ERC721InvalidOperator",
      "type": "error"
    },
    {
      "inputs": [
        {
          "internalType": "address",
          "name": "owner",
          "type": "address"
        }
      ],
      "name": "ERC721InvalidOwner",
      "type": "error"
    },
    {
      "inputs": [
        {
          "internalType": "address",
          "name": "receiver",
          "type": "address"
        }
      ],
      "name": "ERC721InvalidReceiver",
      "type": "error"
    },
    {
      "inputs": [
        {
          "internalType": "address",
          "name": "sender",
          "type": "address"
        }
      ],
      "name": "ERC721InvalidSender",
      "type": "error"
    },
    {
      "inputs": [
        {
          "internalType": "uint256",
          "name": "tokenId",
          "type": "uint256"
        }
      ],
      "name": "ERC721NonexistentToken",
      "type": "error"
    },
    {
      "inputs": [],
      "name": "InvalidCredentialType",
      "type": "error"
    },
    {
      "inputs": [],
      "name": "NotMinter",
      "type": "error"
    },
    {
      "inputs": [
        {
          "internalType": "address",
          "name": "owner",
          "type": "address"
        }
      ],
      "name": "OwnableInvalidOwner",
      "type": "error"
    },
    {
      "inputs": [
        {
          "internalType": "address",
          "name": "account",
          "type": "address"
        }
      ],
      "name": "OwnableUnauthorizedAccount",
      "type": "error"
    },
    {
      "inputs": [],
      "name": "SoulboundNonTransferable",
      "type": "error"
    },
    {
      "anonymous": false,
      "inputs": [
        {
          "indexed": true,
          "internalType": "address",
          "name": "owner",
          "type": "address"
        },
        {
          "indexed": true,
          "internalType": "address",
          "name": "approved",
          "type": "address"
        },
        {
          "indexed": true,
          "internalType": "uint256",
          "name": "tokenId",
          "type": "uint256"
        }
      ],
      "name": "Approval",
      "type": "event"
    },
    {
      "anonymous": false,
      "inputs": [
        {
          "indexed": true,
          "internalType": "address",
          "name": "owner",
          "type": "address"
        },
        {
          "indexed": true,
          "internalType": "address",
          "name": "operator",
          "type": "address"
        },
        {
          "indexed": false,
          "internalType": "bool",
          "name": "approved",
          "type": "bool"
        }
      ],
      "name": "ApprovalForAll",
      "type": "event"
    },
    {
      "anonymous": false,
      "inputs": [
        {
          "indexed": true,
          "internalType": "address",
          "name": "holder",
          "type": "address"
        },
        {
          "indexed": true,
          "internalType": "uint8",
          "name": "credTypeBit",
          "type": "uint8"
        },
        {
          "indexed": true,
          "internalType": "uint256",
          "name": "tokenId",
          "type": "uint256"
        },
        {
          "indexed": false,
          "internalType": "address",
          "name": "attester",
          "type": "address"
        }
      ],
      "name": "CredentialAdded",
      "type": "event"
    },
    {
      "anonymous": false,
      "inputs": [
        {
          "indexed": true,
          "internalType": "uint8",
          "name": "credTypeBit",
          "type": "uint8"
        },
        {
          "indexed": false,
          "internalType": "uint64",
          "name": "durationSeconds",
          "type": "uint64"
        }
      ],
      "name": "ExpiryConfigSet",
      "type": "event"
    },
    {
      "anonymous": false,
      "inputs": [
        {
          "indexed": true,
          "internalType": "uint256",
          "name": "tokenId",
          "type": "uint256"
        }
      ],
      "name": "Locked",
      "type": "event"
    },
    {
      "anonymous": false,
      "inputs": [
        {
          "indexed": true,
          "internalType": "address",
          "name": "previousOwner",
          "type": "address"
        },
        {
          "indexed": true,
          "internalType": "address",
          "name": "newOwner",
          "type": "address"
        }
      ],
      "name": "OwnershipTransferred",
      "type": "event"
    },
    {
      "anonymous": false,
      "inputs": [
        {
          "indexed": true,
          "internalType": "address",
          "name": "from",
          "type": "address"
        },
        {
          "indexed": true,
          "internalType": "address",
          "name": "to",
          "type": "address"
        },
        {
          "indexed": true,
          "internalType": "uint256",
          "name": "tokenId",
          "type": "uint256"
        }
      ],
      "name": "Transfer",
      "type": "event"
    },
    {
      "inputs": [],
      "name": "NUM_CREDENTIAL_TYPES",
      "outputs": [
        {
          "internalType": "uint8",
          "name": "",
          "type": "uint8"
        }
      ],
      "stateMutability": "view",
      "type": "function"
    },
    {
      "inputs": [
        {
          "internalType": "address",
          "name": "user",
          "type": "address"
        }
      ],
      "name": "activeBitmaskOf",
      "outputs": [
        {
          "internalType": "uint8",
          "name": "activeBitmask",
          "type": "uint8"
        }
      ],
      "stateMutability": "view",
      "type": "function"
    },
    {
      "inputs": [
        {
          "internalType": "address",
          "name": "user",
          "type": "address"
        }
      ],
      "name": "addressToTokenId",
      "outputs": [
        {
          "internalType": "uint256",
          "name": "",
          "type": "uint256"
        }
      ],
      "stateMutability": "view",
      "type": "function"
    },
    {
      "inputs": [
        {
          "internalType": "address",
          "name": "",
          "type": "address"
        },
        {
          "internalType": "uint256",
          "name": "",
          "type": "uint256"
        }
      ],
      "name": "approve",
      "outputs": [],
      "stateMutability": "pure",
      "type": "function"
    },
    {
      "inputs": [
        {
          "internalType": "address",
          "name": "owner",
          "type": "address"
        }
      ],
      "name": "balanceOf",
      "outputs": [
        {
          "internalType": "uint256",
          "name": "",
          "type": "uint256"
        }
      ],
      "stateMutability": "view",
      "type": "function"
    },
    {
      "inputs": [
        {
          "internalType": "address",
          "name": "user",
          "type": "address"
        }
      ],
      "name": "bitmaskOf",
      "outputs": [
        {
          "internalType": "uint8",
          "name": "",
          "type": "uint8"
        }
      ],
      "stateMutability": "view",
      "type": "function"
    },
    {
      "inputs": [
        {
          "internalType": "address",
          "name": "user",
          "type": "address"
        },
        {
          "internalType": "uint8",
          "name": "credTypeBit",
          "type": "uint8"
        }
      ],
      "name": "credentialAttester",
      "outputs": [
        {
          "internalType": "address",
          "name": "",
          "type": "address"
        }
      ],
      "stateMutability": "view",
      "type": "function"
    },
    {
      "inputs": [
        {
          "internalType": "uint256",
          "name": "tokenId",
          "type": "uint256"
        }
      ],
      "name": "credentialData",
      "outputs": [
        {
          "components": [
            {
              "internalType": "uint8",
              "name": "bitmask",
              "type": "uint8"
            },
            {
              "internalType": "uint64",
              "name": "issuedAt",
              "type": "uint64"
            },
            {
              "internalType": "uint64",
              "name": "expiresAt",
              "type": "uint64"
            }
          ],
          "internalType": "struct IComplianceSBT.CredentialData",
          "name": "",
          "type": "tuple"
        }
      ],
      "stateMutability": "view",
      "type": "function"
    },
    {
      "inputs": [
        {
          "internalType": "address",
          "name": "user",
          "type": "address"
        },
        {
          "internalType": "uint8",
          "name": "credTypeBit",
          "type": "uint8"
        }
      ],
      "name": "credentialExpiresAt",
      "outputs": [
        {
          "internalType": "uint64",
          "name": "",
          "type": "uint64"
        }
      ],
      "stateMutability": "view",
      "type": "function"
    },
    {
      "inputs": [
        {
          "internalType": "uint8",
          "name": "bit",
          "type": "uint8"
        }
      ],
      "name": "credentialTypeCount",
      "outputs": [
        {
          "internalType": "uint256",
          "name": "",
          "type": "uint256"
        }
      ],
      "stateMutability": "view",
      "type": "function"
    },
    {
      "inputs": [
        {
          "internalType": "uint8",
          "name": "",
          "type": "uint8"
        }
      ],
      "name": "credentialTypeDuration",
      "outputs": [
        {
          "internalType": "uint64",
          "name": "",
          "type": "uint64"
        }
      ],
      "stateMutability": "view",
      "type": "function"
    },
    {
      "inputs": [
        {
          "internalType": "uint256",
          "name": "tokenId",
          "type": "uint256"
        }
      ],
      "name": "getApproved",
      "outputs": [
        {
          "internalType": "address",
          "name": "",
          "type": "address"
        }
      ],
      "stateMutability": "view",
      "type": "function"
    },
    {
      "inputs": [
        {
          "internalType": "address",
          "name": "user",
          "type": "address"
        }
      ],
      "name": "getTier",
      "outputs": [
        {
          "internalType": "uint8",
          "name": "",
          "type": "uint8"
        }
      ],
      "stateMutability": "view",
      "type": "function"
    },
    {
      "inputs": [
        {
          "internalType": "address",
          "name": "user",
          "type": "address"
        },
        {
          "internalType": "uint8",
          "name": "credTypeBit",
          "type": "uint8"
        }
      ],
      "name": "hasCredential",
      "outputs": [
        {
          "internalType": "bool",
          "name": "",
          "type": "bool"
        }
      ],
      "stateMutability": "view",
      "type": "function"
    },
    {
      "inputs": [
        {
          "internalType": "address",
          "name": "user",
          "type": "address"
        },
        {
          "internalType": "uint8",
          "name": "credTypeBit",
          "type": "uint8"
        }
      ],
      "name": "hasCredentialNotRevoked",
      "outputs": [
        {
          "internalType": "bool",
          "name": "",
          "type": "bool"
        }
      ],
      "stateMutability": "view",
      "type": "function"
    },
    {
      "inputs": [
        {
          "internalType": "address",
          "name": "owner",
          "type": "address"
        },
        {
          "internalType": "address",
          "name": "operator",
          "type": "address"
        }
      ],
      "name": "isApprovedForAll",
      "outputs": [
        {
          "internalType": "bool",
          "name": "",
          "type": "bool"
        }
      ],
      "stateMutability": "view",
      "type": "function"
    },
    {
      "inputs": [
        {
          "internalType": "uint256",
          "name": "",
          "type": "uint256"
        }
      ],
      "name": "locked",
      "outputs": [
        {
          "internalType": "bool",
          "name": "",
          "type": "bool"
        }
      ],
      "stateMutability": "pure",
      "type": "function"
    },
    {
      "inputs": [
        {
          "internalType": "address",
          "name": "to",
          "type": "address"
        },
        {
          "internalType": "uint8",
          "name": "credTypeBit",
          "type": "uint8"
        },
        {
          "internalType": "address",
          "name": "attester",
          "type": "address"
        }
      ],
      "name": "mint",
      "outputs": [
        {
          "internalType": "uint256",
          "name": "tokenId",
          "type": "uint256"
        }
      ],
      "stateMutability": "nonpayable",
      "type": "function"
    },
    {
      "inputs": [],
      "name": "minter",
      "outputs": [
        {
          "internalType": "address",
          "name": "",
          "type": "address"
        }
      ],
      "stateMutability": "view",
      "type": "function"
    },
    {
      "inputs": [],
      "name": "name",
      "outputs": [
        {
          "internalType": "string",
          "name": "",
          "type": "string"
        }
      ],
      "stateMutability": "view",
      "type": "function"
    },
    {
      "inputs": [],
      "name": "owner",
      "outputs": [
        {
          "internalType": "address",
          "name": "",
          "type": "address"
        }
      ],
      "stateMutability": "view",
      "type": "function"
    },
    {
      "inputs": [
        {
          "internalType": "uint256",
          "name": "tokenId",
          "type": "uint256"
        }
      ],
      "name": "ownerOf",
      "outputs": [
        {
          "internalType": "address",
          "name": "",
          "type": "address"
        }
      ],
      "stateMutability": "view",
      "type": "function"
    },
    {
      "inputs": [],
      "name": "renounceOwnership",
      "outputs": [],
      "stateMutability": "nonpayable",
      "type": "function"
    },
    {
      "inputs": [],
      "name": "revocationRegistry",
      "outputs": [
        {
          "internalType": "address",
          "name": "",
          "type": "address"
        }
      ],
      "stateMutability": "view",
      "type": "function"
    },
    {
      "inputs": [],
      "name": "riskOracle",
      "outputs": [
        {
          "internalType": "address",
          "name": "",
          "type": "address"
        }
      ],
      "stateMutability": "view",
      "type": "function"
    },
    {
      "inputs": [
        {
          "internalType": "address",
          "name": "user",
          "type": "address"
        }
      ],
      "name": "riskScore",
      "outputs": [
        {
          "internalType": "uint8",
          "name": "",
          "type": "uint8"
        }
      ],
      "stateMutability": "view",
      "type": "function"
    },
    {
      "inputs": [
        {
          "internalType": "address",
          "name": "from",
          "type": "address"
        },
        {
          "internalType": "address",
          "name": "to",
          "type": "address"
        },
        {
          "internalType": "uint256",
          "name": "tokenId",
          "type": "uint256"
        }
      ],
      "name": "safeTransferFrom",
      "outputs": [],
      "stateMutability": "nonpayable",
      "type": "function"
    },
    {
      "inputs": [
        {
          "internalType": "address",
          "name": "from",
          "type": "address"
        },
        {
          "internalType": "address",
          "name": "to",
          "type": "address"
        },
        {
          "internalType": "uint256",
          "name": "tokenId",
          "type": "uint256"
        },
        {
          "internalType": "bytes",
          "name": "data",
          "type": "bytes"
        }
      ],
      "name": "safeTransferFrom",
      "outputs": [],
      "stateMutability": "nonpayable",
      "type": "function"
    },
    {
      "inputs": [
        {
          "internalType": "address",
          "name": "",
          "type": "address"
        },
        {
          "internalType": "bool",
          "name": "",
          "type": "bool"
        }
      ],
      "name": "setApprovalForAll",
      "outputs": [],
      "stateMutability": "pure",
      "type": "function"
    },
    {
      "inputs": [
        {
          "internalType": "uint8",
          "name": "credTypeBit",
          "type": "uint8"
        },
        {
          "internalType": "uint64",
          "name": "durationSeconds",
          "type": "uint64"
        }
      ],
      "name": "setExpiryConfig",
      "outputs": [],
      "stateMutability": "nonpayable",
      "type": "function"
    },
    {
      "inputs": [
        {
          "internalType": "address",
          "name": "_minter",
          "type": "address"
        }
      ],
      "name": "setMinter",
      "outputs": [],
      "stateMutability": "nonpayable",
      "type": "function"
    },
    {
      "inputs": [
        {
          "internalType": "bytes4",
          "name": "interfaceId",
          "type": "bytes4"
        }
      ],
      "name": "supportsInterface",
      "outputs": [
        {
          "internalType": "bool",
          "name": "",
          "type": "bool"
        }
      ],
      "stateMutability": "view",
      "type": "function"
    },
    {
      "inputs": [],
      "name": "symbol",
      "outputs": [
        {
          "internalType": "string",
          "name": "",
          "type": "string"
        }
      ],
      "stateMutability": "view",
      "type": "function"
    },
    {
      "inputs": [
        {
          "internalType": "uint256",
          "name": "tokenId",
          "type": "uint256"
        }
      ],
      "name": "tokenURI",
      "outputs": [
        {
          "internalType": "string",
          "name": "",
          "type": "string"
        }
      ],
      "stateMutability": "view",
      "type": "function"
    },
    {
      "inputs": [],
      "name": "totalMinted",
      "outputs": [
        {
          "internalType": "uint256",
          "name": "",
          "type": "uint256"
        }
      ],
      "stateMutability": "view",
      "type": "function"
    },
    {
      "inputs": [
        {
          "internalType": "address",
          "name": "from",
          "type": "address"
        },
        {
          "internalType": "address",
          "name": "to",
          "type": "address"
        },
        {
          "internalType": "uint256",
          "name": "tokenId",
          "type": "uint256"
        }
      ],
      "name": "transferFrom",
      "outputs": [],
      "stateMutability": "nonpayable",
      "type": "function"
    },
    {
      "inputs": [
        {
          "internalType": "address",
          "name": "newOwner",
          "type": "address"
        }
      ],
      "name": "transferOwnership",
      "outputs": [],
      "stateMutability": "nonpayable",
      "type": "function"
    }
  ],
  "bytecode": "0x60806040523480156200001157600080fd5b50604051620021cc380380620021cc83398101604081905262000034916200027a565b336040518060400160405280601681526020017f486173684b657920436f6d706c69616e63655061737300000000000000000000815250604051806040016040528060048152602001630484b43560e41b815250816000908162000099919062000359565b506001620000a8828262000359565b5050506001600160a01b038116620000da57604051631e4fbdf760e01b81526000600482015260240160405180910390fd5b620000e5816200020b565b50600980546001600160a01b039384166001600160a01b031991821617909155600a805492909316911617905560116020527f4ad3b33220dddc71b994a52d72c06b10862965f7d926534c05c00fb7e819e7b780546001600160401b03199081166303c267009081179092557f17bc176d2408558f6e4111feebc3cab4e16b63e967be91cde721f4c8a488b552805482166301e133809081179091557f08037d7b151cc412d25674a4e66b334d9ae9d2e5517a7feaae5cdb828bf1c62880548316821790557f9bfbaa59f8e10e7868f8b402de9d605a390c45ddaebd8c9de3c6f31e733c87ff8054831690931790925560046000527f251164fe1d8864fe5e86082eae9c288bc2b58695a4d28538dfe86e9e4f1755858054909116909117905562000425565b600680546001600160a01b038381166001600160a01b0319831681179093556040519116919082907f8be0079c531659141344cd1fd0a4f28419497f9722a3daafe3b4186f6b6457e090600090a35050565b80516001600160a01b03811681146200027557600080fd5b919050565b600080604083850312156200028e57600080fd5b62000299836200025d565b9150620002a9602084016200025d565b90509250929050565b634e487b7160e01b600052604160045260246000fd5b600181811c90821680620002dd57607f821691505b602082108103620002fe57634e487b7160e01b600052602260045260246000fd5b50919050565b601f82111562000354576000816000526020600020601f850160051c810160208610156200032f5750805b601f850160051c820191505b8181101562000350578281556001016200033b565b5050505b505050565b81516001600160401b03811115620003755762000375620002b2565b6200038d81620003868454620002c8565b8462000304565b602080601f831160018114620003c55760008415620003ac5750858301515b600019600386901b1c1916600185901b17855562000350565b600085815260208120601f198616915b82811015620003f657888601518255948401946001909101908401620003d5565b5085821015620004155787850151600019600388901b60f8161c191681555b5050505050600190811b01905550565b611d9780620004356000396000f3fe608060405234801561001057600080fd5b50600436106102275760003560e01c80638da5cb5b11610130578063b45aae52116100b8578063e910321f1161007c578063e910321f1461058c578063e985e9c51461059f578063f0f2740d146105b2578063f2fde38b146105c5578063fca3b5aa146105d857600080fd5b8063b45aae521461052d578063b88d4fde14610540578063c87b56dd14610553578063d50507fd14610566578063d70d3a971461057957600080fd5b8063a2309ff8116100ff578063a2309ff814610435578063aa614d251461043d578063afbb540c14610466578063b2d1176814610479578063b45a3c0e1461051957600080fd5b80638da5cb5b146103fb57806395d89b411461040c5780639de1414e14610414578063a22cb4651461042757600080fd5b806342842e0e116101b35780636511bf2e116101825780636511bf2e1461039157806367eb7eeb146103ba57806370a08231146103cd578063715018a6146103e057806375567d20146103e857600080fd5b806342842e0e1461032d5780634eff2455146103405780635a45a08b146103535780636352211e1461037e57600080fd5b8063081812fc116101fa578063081812fc146102ae578063095ea7b3146102c157806323b872dd146102d657806334d699c8146102e9578063414363e61461031a57600080fd5b806301e9bb931461022c57806301ffc9a71461024b57806306fdde031461026e5780630754617214610283575b600080fd5b610234600581565b60405160ff90911681526020015b60405180910390f35b61025e6102593660046118d3565b6105eb565b6040519015158152602001610242565b610276610616565b6040516102429190611940565b600854610296906001600160a01b031681565b6040516001600160a01b039091168152602001610242565b6102966102bc366004611953565b6106a8565b6102d46102cf366004611988565b6106d1565b005b6102d46102e43660046119b2565b6106ea565b61030c6102f73660046119fd565b60ff166000908152600d602052604090205490565b604051908152602001610242565b610234610328366004611a1a565b61077a565b6102d461033b3660046119b2565b6107e9565b61025e61034e366004611a35565b610809565b610366610361366004611a35565b610942565b6040516001600160401b039091168152602001610242565b61029661038c366004611953565b61099a565b61030c61039f366004611a1a565b6001600160a01b03166000908152600c602052604090205490565b61025e6103c8366004611a35565b6109a5565b61030c6103db366004611a1a565b6109b8565b6102d4610a00565b6102d46103f6366004611a6c565b610a14565b6006546001600160a01b0316610296565b610276610aa7565b610234610422366004611a1a565b610ab6565b6102d46102cf366004611ab4565b600e5461030c565b61036661044b3660046119fd565b6011602052600090815260409020546001600160401b031681565b610234610474366004611a1a565b610b3d565b6104e3610487366004611953565b604080516060808201835260008083526020808401829052928401819052938452600b825292829020825193840183525460ff811684526001600160401b036101008204811692850192909252600160481b9004169082015290565b60408051825160ff1681526020808401516001600160401b03908116918301919091529282015190921690820152606001610242565b61025e610527366004611953565b50600190565b61023461053b366004611a1a565b610b7e565b6102d461054e366004611af6565b610b94565b610276610561366004611953565b610bab565b600a54610296906001600160a01b031681565b610296610587366004611a35565b610c1f565b61030c61059a366004611bd1565b610c77565b61025e6105ad366004611c16565b610ef9565b600954610296906001600160a01b031681565b6102d46105d3366004611a1a565b610f27565b6102d46105e6366004611a1a565b610f65565b6000635a2d1e0760e11b6001600160e01b031983161480610610575061061082610f8f565b92915050565b60606000805461062590611c49565b80601f016020809104026020016040519081016040528092919081815260200182805461065190611c49565b801561069e5780601f106106735761010080835404028352916020019161069e565b820191906000526020600020905b81548152906001019060200180831161068157829003601f168201915b5050505050905090565b60006106b382610fdf565b506000828152600460205260409020546001600160a01b0316610610565b60405163220fe93360e21b815260040160405180910390fd5b6001600160a01b03821661071957604051633250574960e11b8152600060048201526024015b60405180910390fd5b6000610726838333611018565b9050836001600160a01b0316816001600160a01b031614610774576040516364283d7b60e01b81526001600160a01b0380861660048301526024820184905282166044820152606401610710565b50505050565b600a5460405163dc08706d60e01b81526001600160a01b038381166004830152600092169063dc08706d90602401602060405180830381865afa1580156107c5573d6000803e3d6000fd5b505050506040513d601f19601f820116820180604052508101906106109190611c7d565b61080483838360405180602001604052806000815250610b94565b505050565b6001600160a01b0382166000908152600c60205260408120548015806108335750600560ff841610155b15610842576000915050610610565b6000818152600b6020526040812054600160ff8087169190911b9291831616900361087257600092505050610610565b6000828152600f6020908152604080832060ff881684529091529020546001600160401b031680158015906108af5750806001600160401b031642115b156108c05760009350505050610610565b60095460405163fc077ea360e01b81526001600160a01b03888116600483015260ff881660248301529091169063fc077ea390604401602060405180830381865afa158015610913573d6000803e3d6000fd5b505050506040513d601f19601f820116820180604052508101906109379190611c9a565b159695505050505050565b6001600160a01b0382166000908152600c602052604081205480820361096c576000915050610610565b6000908152600f6020908152604080832060ff861684529091529020546001600160401b0316905092915050565b600061061082610fdf565b60006109b18383610809565b9392505050565b60006001600160a01b0382166109e4576040516322718ad960e21b815260006004820152602401610710565b506001600160a01b031660009081526003602052604090205490565b610a08611079565b610a1260006110a6565b565b610a1c611079565b600560ff831610610a40576040516369222ac360e11b815260040160405180910390fd5b60ff8216600081815260116020908152604091829020805467ffffffffffffffff19166001600160401b03861690811790915591519182527f305742547c54b80b4e8f13a36dc39f85a5c1f179d4df61c2961db73688c5324e910160405180910390a25050565b60606001805461062590611c49565b6001600160a01b0381166000908152600c6020526040812054808203610adf5750600092915050565b6000818152600b602052604081205460ff16905b600560ff82161015610b3557600160ff8083169190911b908382161615801590610b225750610b228683610809565b15610b2c57938417935b50600101610af3565b505050919050565b6001600160a01b0381166000908152600c6020526040812054808203610b665750600092915050565b6000908152600b602052604090205460ff1692915050565b6000610610610b8c83610ab6565b60ff166110f8565b610b9f8484846106ea565b61077484848484611182565b6060610bb682610fdf565b506000610bce60408051602081019091526000815290565b90506000815111610bee57604051806020016040528060008152506109b1565b80610bf8846112ab565b604051602001610c09929190611cb7565b6040516020818303038152906040529392505050565b6001600160a01b0382166000908152600c6020526040812054808203610c49576000915050610610565b600090815260106020908152604080832060ff861684529091529020546001600160a01b0316905092915050565b6008546000906001600160a01b03163314610ca557604051633e34a41b60e21b815260040160405180910390fd5b600560ff841610610cc9576040516369222ac360e11b815260040160405180910390fd5b506001600160a01b0383166000908152600c602090815260408083205460ff86168085526011909352908320549092600190921b9190610d12906001600160401b031642611ce6565b905082600003610dab5760078054600101908190559250610d33868461133d565b6001600160a01b0386166000908152600c60209081526040808320869055858352600b909152808220805468ffffffffffffffff001916610100426001600160401b031602179055600e805460010190555184917f032bc66be43dbccb7487781d168eb7bda224628a3b2c3388bdf69b532a3a161191a25b6000838152600b6020526040812054831660ff169003610dfd576000838152600b60209081526040808320805460ff19811660ff918216888316171790915588168352600d9091529020805460010190555b6000838152600f6020908152604080832060ff8916808552908352818420805467ffffffffffffffff19166001600160401b03871617905586845260108352818420908452909152902080546001600160a01b0319166001600160a01b038616179055610e69836113a2565b6000848152600b602090815260409182902080546001600160401b0394909416600160481b0270ffffffffffffffff0000000000000000001990941693909317909255516001600160a01b038681168252859260ff891692918a16917fcb6aacd1165e4a156506255ca3627ff5bce21ec5612bba94a6f42f23c5429021910160405180910390a450509392505050565b6001600160a01b03918216600090815260056020908152604080832093909416825291909152205460ff1690565b610f2f611079565b6001600160a01b038116610f5957604051631e4fbdf760e01b815260006004820152602401610710565b610f62816110a6565b50565b610f6d611079565b600880546001600160a01b0319166001600160a01b0392909216919091179055565b60006001600160e01b031982166380ac58cd60e01b1480610fc057506001600160e01b03198216635b5e139f60e01b145b8061061057506301ffc9a760e01b6001600160e01b0319831614610610565b6000818152600260205260408120546001600160a01b03168061061057604051637e27328960e01b815260048101849052602401610710565b6000828152600260205260408120546001600160a01b0316801580159061104757506001600160a01b03851615155b156110655760405163220fe93360e21b815260040160405180910390fd5b61107085858561151c565b95945050505050565b6006546001600160a01b03163314610a125760405163118cdaa760e01b8152336004820152602401610710565b600680546001600160a01b038381166001600160a01b0319831681179093556040519116919082907f8be0079c531659141344cd1fd0a4f28419497f9722a3daafe3b4186f6b6457e090600090a35050565b60006001821615156002831615156004841615801590600886161515906010871615159083906111255750805b15611137575060039695505050505050565b838015611148575081806111485750805b1561115a575060029695505050505050565b84806111635750835b15611175575060019695505050505050565b5060009695505050505050565b6001600160a01b0383163b1561077457604051630a85bd0160e11b81526001600160a01b0384169063150b7a02906111c4903390889087908790600401611d07565b6020604051808303816000875af19250505080156111ff575060408051601f3d908101601f191682019092526111fc91810190611d44565b60015b611268573d80801561122d576040519150601f19603f3d011682016040523d82523d6000602084013e611232565b606091505b50805160000361126057604051633250574960e11b81526001600160a01b0385166004820152602401610710565b805181602001fd5b6001600160e01b03198116630a85bd0160e11b146112a457604051633250574960e11b81526001600160a01b0385166004820152602401610710565b5050505050565b606060006112b883611615565b60010190506000816001600160401b038111156112d7576112d7611ae0565b6040519080825280601f01601f191660200182016040528015611301576020820181803683370190505b5090508181016020015b600019016f181899199a1a9b1b9c1cb0b131b232b360811b600a86061a8153600a850494508461130b57509392505050565b6001600160a01b03821661136757604051633250574960e11b815260006004820152602401610710565b600061137583836000611018565b90506001600160a01b03811615610804576040516339e3563760e11b815260006004820152602401610710565b6000818152600b60205260408120546001600160401b039160ff909116905b600560ff821610156114f35760008160ff166001901b905080831660ff166000036113ec57506114eb565b6000858152600f6020908152604080832060ff861684529091529020546001600160401b03168015806114275750806001600160401b031642115b156114335750506114eb565b6009546001600160a01b031663fc077ea361144d8861099a565b6040516001600160e01b031960e084901b1681526001600160a01b03909116600482015260ff86166024820152604401602060405180830381865afa15801561149a573d6000803e3d6000fd5b505050506040513d601f19601f820116820180604052508101906114be9190611c9a565b156114ca5750506114eb565b846001600160401b0316816001600160401b031610156114e8578094505b50505b6001016113c1565b5067fffffffffffffffe196001600160401b038316016115165750600092915050565b50919050565b6000828152600260205260408120546001600160a01b0390811690831615611549576115498184866116ed565b6001600160a01b0381161561158757611566600085600080611751565b6001600160a01b038116600090815260036020526040902080546000190190555b6001600160a01b038516156115b6576001600160a01b0385166000908152600360205260409020805460010190555b60008481526002602052604080822080546001600160a01b0319166001600160a01b0389811691821790925591518793918516917fddf252ad1be2c89b69c2b068fc378daa952ba7f163c4a11628f55a4df523b3ef91a4949350505050565b60008072184f03e93ff9f4daa797ed6e38ed64bf6a1f0160401b83106116545772184f03e93ff9f4daa797ed6e38ed64bf6a1f0160401b830492506040015b6d04ee2d6d415b85acef81000000008310611680576d04ee2d6d415b85acef8100000000830492506020015b662386f26fc10000831061169e57662386f26fc10000830492506010015b6305f5e10083106116b6576305f5e100830492506008015b61271083106116ca57612710830492506004015b606483106116dc576064830492506002015b600a83106106105760010192915050565b6116f8838383611857565b610804576001600160a01b03831661172657604051637e27328960e01b815260048101829052602401610710565b60405163177e802f60e01b81526001600160a01b038316600482015260248101829052604401610710565b808061176557506001600160a01b03821615155b1561182757600061177584610fdf565b90506001600160a01b038316158015906117a15750826001600160a01b0316816001600160a01b031614155b80156117b457506117b28184610ef9565b155b156117dd5760405163a9fbf51f60e01b81526001600160a01b0384166004820152602401610710565b81156118255783856001600160a01b0316826001600160a01b03167f8c5be1e5ebec7d5bd14f71427d1e84f3dd0314c0f7b2291e5b200ac8c7c3b92560405160405180910390a45b505b5050600090815260046020526040902080546001600160a01b0319166001600160a01b0392909216919091179055565b60006001600160a01b038316158015906118b55750826001600160a01b0316846001600160a01b0316148061189157506118918484610ef9565b806118b557506000828152600460205260409020546001600160a01b038481169116145b949350505050565b6001600160e01b031981168114610f6257600080fd5b6000602082840312156118e557600080fd5b81356109b1816118bd565b60005b8381101561190b5781810151838201526020016118f3565b50506000910152565b6000815180845261192c8160208601602086016118f0565b601f01601f19169290920160200192915050565b6020815260006109b16020830184611914565b60006020828403121561196557600080fd5b5035919050565b80356001600160a01b038116811461198357600080fd5b919050565b6000806040838503121561199b57600080fd5b6119a48361196c565b946020939093013593505050565b6000806000606084860312156119c757600080fd5b6119d08461196c565b92506119de6020850161196c565b9150604084013590509250925092565b60ff81168114610f6257600080fd5b600060208284031215611a0f57600080fd5b81356109b1816119ee565b600060208284031215611a2c57600080fd5b6109b18261196c565b60008060408385031215611a4857600080fd5b611a518361196c565b91506020830135611a61816119ee565b809150509250929050565b60008060408385031215611a7f57600080fd5b8235611a8a816119ee565b915060208301356001600160401b0381168114611a6157600080fd5b8015158114610f6257600080fd5b60008060408385031215611ac757600080fd5b611ad08361196c565b91506020830135611a6181611aa6565b634e487b7160e01b600052604160045260246000fd5b60008060008060808587031215611b0c57600080fd5b611b158561196c565b9350611b236020860161196c565b92506040850135915060608501356001600160401b0380821115611b4657600080fd5b818701915087601f830112611b5a57600080fd5b813581811115611b6c57611b6c611ae0565b604051601f8201601f19908116603f01168101908382118183101715611b9457611b94611ae0565b816040528281528a6020848701011115611bad57600080fd5b82602086016020830137600060208483010152809550505050505092959194509250565b600080600060608486031215611be657600080fd5b611bef8461196c565b92506020840135611bff816119ee565b9150611c0d6040850161196c565b90509250925092565b60008060408385031215611c2957600080fd5b611c328361196c565b9150611c406020840161196c565b90509250929050565b600181811c90821680611c5d57607f821691505b60208210810361151657634e487b7160e01b600052602260045260246000fd5b600060208284031215611c8f57600080fd5b81516109b1816119ee565b600060208284031215611cac57600080fd5b81516109b181611aa6565b60008351611cc98184602088016118f0565b835190830190611cdd8183602088016118f0565b01949350505050565b8082018082111561061057634e487b7160e01b600052601160045260246000fd5b6001600160a01b0385811682528416602082015260408101839052608060608201819052600090611d3a90830184611914565b9695505050505050565b600060208284031215611d5657600080fd5b81516109b1816118bd56fea2646970667358221220f7d208209c39d537d9f07333374b7ae8a47044fc7cddd33c5cd10a60cc997f0f64736f6c63430008180033",
  "linkReferences": {},
  "deployedLinkReferences": {}
}