{
  "_format": "hh-sol-artifact-1",
  "contractName": "CompliancePass",
  "sourceName": "contracts/CompliancePass.sol",
  "abi": [
    {
      "inputs": [
        {
          "internalType": "address",
          "name": "_semaphore",
          "type": "address"
        },
        {
          "internalType": "address",
          "name": "_sbt",
          "type": "address"
        },
        {
          "internalType": "address",
          "name": "_attesterRegistry",
          "type": "address"
        }
      ],
      "stateMutability": "nonpayable",
      "type": "constructor"
    },
    {
      "inputs": [],
      "name": "AttesterNotApproved",
      "type": "error"
    },
    {
      "inputs": [],
      "name": "CredentialAlreadyExists",
      "type": "error"
    },
    {
      "inputs": [],
      "name": "CredentialNotIssued",
      "type": "error"
    },
    {
      "inputs": [],
      "name": "InvalidCredentialType",
      "type": "error"
    },
    {
      "inputs": [],
      "name": "InvalidProofMessage",
      "type": "error"
    },
    {
      "inputs": [
        {
          "internalType": "address",
          "name": "owner",
          "type": "address"
        }
      ],
      "name": "OwnableInvalidOwner",
      "type": "error"
    },
    {
      "inputs": [
        {
          "internalType": "address",
          "name": "account",
          "type": "address"
        }
      ],
      "name": "OwnableUnauthorizedAccount",
      "type": "error"
    },
    {
      "inputs": [],
      "name": "ReentrancyGuardReentrantCall",
      "type": "error"
    },
    {
      "anonymous": false,
      "inputs": [
        {
          "indexed": true,
          "internalType": "address",
          "name": "recipient",
          "type": "address"
        },
        {
          "indexed": true,
          "internalType": "enum CompliancePass.CredentialType",
          "name": "credType",
          "type": "uint8"
        },
        {
          "indexed": false,
          "internalType": "uint256",
          "name": "tokenId",
          "type": "uint256"
        },
        {
          "indexed": false,
          "internalType": "uint256",
          "name": "nullifier",
          "type": "uint256"
        },
        {
          "indexed": false,
          "internalType": "address",
          "name": "attester",
          "type": "address"
        }
      ],
      "name": "CredentialMinted",
      "type": "event"
    },
    {
      "anonymous": false,
      "inputs": [
        {
          "indexed": true,
          "internalType": "address",
          "name": "recipient",
          "type": "address"
        },
        {
          "indexed": true,
          "internalType": "enum CompliancePass.CredentialType",
          "name": "credType",
          "type": "uint8"
        },
        {
          "indexed": false,
          "internalType": "uint64",
          "name": "newExpiresAt",
          "type": "uint64"
        },
        {
          "indexed": false,
          "internalType": "address",
          "name": "attester",
          "type": "address"
        }
      ],
      "name": "CredentialRenewed",
      "type": "event"
    },
    {
      "anonymous": false,
      "inputs": [
        {
          "indexed": true,
          "internalType": "address",
          "name": "attester",
          "type": "address"
        }
      ],
      "name": "DefaultAttesterUpdated",
      "type": "event"
    },
    {
      "anonymous": false,
      "inputs": [
        {
          "indexed": true,
          "internalType": "enum CompliancePass.CredentialType",
          "name": "credType",
          "type": "uint8"
        },
        {
          "indexed": false,
          "internalType": "uint256",
          "name": "groupId",
          "type": "uint256"
        }
      ],
      "name": "GroupCreated",
      "type": "event"
    },
    {
      "anonymous": false,
      "inputs": [
        {
          "indexed": true,
          "internalType": "enum CompliancePass.CredentialType",
          "name": "credType",
          "type": "uint8"
        },
        {
          "indexed": false,
          "internalType": "uint256",
          "name": "identityCommitment",
          "type": "uint256"
        }
      ],
      "name": "MemberAdded",
      "type": "event"
    },
    {
      "anonymous": false,
      "inputs": [
        {
          "indexed": true,
          "internalType": "address",
          "name": "previousOwner",
          "type": "address"
        },
        {
          "indexed": true,
          "internalType": "address",
          "name": "newOwner",
          "type": "address"
        }
      ],
      "name": "OwnershipTransferred",
      "type": "event"
    },
    {
      "inputs": [],
      "name": "NUM_CREDENTIAL_TYPES",
      "outputs": [
        {
          "internalType": "uint8",
          "name": "",
          "type": "uint8"
        }
      ],
      "stateMutability": "view",
      "type": "function"
    },
    {
      "inputs": [
        {
          "internalType": "enum CompliancePass.CredentialType",
          "name": "credType",
          "type": "uint8"
        },
        {
          "internalType": "uint256",
          "name": "identityCommitment",
          "type": "uint256"
        }
      ],
      "name": "addMember",
      "outputs": [],
      "stateMutability": "nonpayable",
      "type": "function"
    },
    {
      "inputs": [
        {
          "internalType": "enum CompliancePass.CredentialType",
          "name": "credType",
          "type": "uint8"
        },
        {
          "internalType": "uint256[]",
          "name": "commitments",
          "type": "uint256[]"
        }
      ],
      "name": "addMembers",
      "outputs": [],
      "stateMutability": "nonpayable",
      "type": "function"
    },
    {
      "inputs": [],
      "name": "attesterRegistry",
      "outputs": [
        {
          "internalType": "contract AttesterRegistry",
          "name": "",
          "type": "address"
        }
      ],
      "stateMutability": "view",
      "type": "function"
    },
    {
      "inputs": [
        {
          "internalType": "enum CompliancePass.CredentialType",
          "name": "",
          "type": "uint8"
        }
      ],
      "name": "credentialGroupId",
      "outputs": [
        {
          "internalType": "uint256",
          "name": "",
          "type": "uint256"
        }
      ],
      "stateMutability": "view",
      "type": "function"
    },
    {
      "inputs": [],
      "name": "defaultAttester",
      "outputs": [
        {
          "internalType": "address",
          "name": "",
          "type": "address"
        }
      ],
      "stateMutability": "view",
      "type": "function"
    },
    {
      "inputs": [
        {
          "internalType": "enum CompliancePass.CredentialType",
          "name": "credType",
          "type": "uint8"
        }
      ],
      "name": "getGroupId",
      "outputs": [
        {
          "internalType": "uint256",
          "name": "",
          "type": "uint256"
        }
      ],
      "stateMutability": "view",
      "type": "function"
    },
    {
      "inputs": [
        {
          "internalType": "address",
          "name": "user",
          "type": "address"
        },
        {
          "internalType": "enum CompliancePass.CredentialType",
          "name": "credType",
          "type": "uint8"
        }
      ],
      "name": "hasCredential",
      "outputs": [
        {
          "internalType": "bool",
          "name": "",
          "type": "bool"
        }
      ],
      "stateMutability": "view",
      "type": "function"
    },
    {
      "inputs": [
        {
          "internalType": "enum CompliancePass.CredentialType",
          "name": "credType",
          "type": "uint8"
        },
        {
          "components": [
            {
              "internalType": "uint256",
              "name": "merkleTreeDepth",
              "type": "uint256"
            },
            {
              "internalType": "uint256",
              "name": "merkleTreeRoot",
              "type": "uint256"
            },
            {
              "internalType": "uint256",
              "name": "nullifier",
              "type": "uint256"
            },
            {
              "internalType": "uint256",
              "name": "message",
              "type": "uint256"
            },
            {
              "internalType": "uint256",
              "name": "scope",
              "type": "uint256"
            },
            {
              "internalType": "uint256[8]",
              "name": "points",
              "type": "uint256[8]"
            }
          ],
          "internalType": "struct ISemaphore.SemaphoreProof",
          "name": "proof",
          "type": "tuple"
        }
      ],
      "name": "mintCredential",
      "outputs": [],
      "stateMutability": "nonpayable",
      "type": "function"
    },
    {
      "inputs": [],
      "name": "owner",
      "outputs": [
        {
          "internalType": "address",
          "name": "",
          "type": "address"
        }
      ],
      "stateMutability": "view",
      "type": "function"
    },
    {
      "inputs": [
        {
          "internalType": "enum CompliancePass.CredentialType",
          "name": "credType",
          "type": "uint8"
        },
        {
          "components": [
            {
              "internalType": "uint256",
              "name": "merkleTreeDepth",
              "type": "uint256"
            },
            {
              "internalType": "uint256",
              "name": "merkleTreeRoot",
              "type": "uint256"
            },
            {
              "internalType": "uint256",
              "name": "nullifier",
              "type": "uint256"
            },
            {
              "internalType": "uint256",
              "name": "message",
              "type": "uint256"
            },
            {
              "internalType": "uint256",
              "name": "scope",
              "type": "uint256"
            },
            {
              "internalType": "uint256[8]",
              "name": "points",
              "type": "uint256[8]"
            }
          ],
          "internalType": "struct ISemaphore.SemaphoreProof",
          "name": "proof",
          "type": "tuple"
        }
      ],
      "name": "renewCredential",
      "outputs": [],
      "stateMutability": "nonpayable",
      "type": "function"
    },
    {
      "inputs": [],
      "name": "renounceOwnership",
      "outputs": [],
      "stateMutability": "nonpayable",
      "type": "function"
    },
    {
      "inputs": [],
      "name": "sbt",
      "outputs": [
        {
          "internalType": "contract ComplianceSBT",
          "name": "",
          "type": "address"
        }
      ],
      "stateMutability": "view",
      "type": "function"
    },
    {
      "inputs": [],
      "name": "semaphore",
      "outputs": [
        {
          "internalType": "contract ISemaphore",
          "name": "",
          "type": "address"
        }
      ],
      "stateMutability": "view",
      "type": "function"
    },
    {
      "inputs": [
        {
          "internalType": "address",
          "name": "attester",
          "type": "address"
        }
      ],
      "name": "setDefaultAttester",
      "outputs": [],
      "stateMutability": "nonpayable",
      "type": "function"
    },
    {
      "inputs": [],
      "name": "totalProofsVerified",
      "outputs": [
        {
          "internalType": "uint256",
          "name": "",
          "type": "uint256"
        }
      ],
      "stateMutability": "view",
      "type": "function"
    },
    {
      "inputs": [
        {
          "internalType": "address",
          "name": "newOwner",
          "type": "address"
        }
      ],
      "name": "transferOwnership",
      "outputs": [],
      "stateMutability": "nonpayable",
      "type": "function"
    }
  ],
  "bytecode": "0x60e06040523480156200001157600080fd5b50604051620016dd380380620016dd833981016040819052620000349162000250565b33806200005b57604051631e4fbdf760e01b81526000600482015260240160405180910390fd5b6200006681620001e3565b50600180556001600160a01b0380841660805282811660a052811660c052600480546001600160a01b0319163317905560005b600560ff82161015620001d9576080516040516302e1f9db60e51b81523060048201526000916001600160a01b031690635c3f3b60906024016020604051808303816000875af1158015620000f2573d6000803e3d6000fd5b505050506040513d601f19601f820116820180604052508101906200011891906200029a565b905080600260008460ff166004811115620001375762000137620002b4565b60048111156200014b576200014b620002b4565b60048111156200015f576200015f620002b4565b815260208101919091526040016000205560ff82166004811115620001885762000188620002b4565b60048111156200019c576200019c620002b4565b6040518281527f537908eb97f24db5073b00d32eaf6289d0934924e15329044dbe5c68aa0d6a2d9060200160405180910390a25060010162000099565b50505050620002ca565b600080546001600160a01b038381166001600160a01b0319831681178455604051919092169283917f8be0079c531659141344cd1fd0a4f28419497f9722a3daafe3b4186f6b6457e09190a35050565b80516001600160a01b03811681146200024b57600080fd5b919050565b6000806000606084860312156200026657600080fd5b620002718462000233565b9250620002816020850162000233565b9150620002916040850162000233565b90509250925092565b600060208284031215620002ad57600080fd5b5051919050565b634e487b7160e01b600052602160045260246000fd5b60805160a05160c0516113816200035c6000396000818161019a015281816104a7015281816106c4015281816109840152610ba501526000818161022c015281816102cd015281816103f4015281816105e801528181610760015281816108920152610ac70152600081816101e10152818161053301528181610a1001528181610cdc0152610df401526113816000f3fe608060405234801561001057600080fd5b506004361061010b5760003560e01c80638da5cb5b116100a2578063db1bccbf11610071578063db1bccbf1461026a578063e39a35631461027d578063e4ad676414610290578063ecd5a946146102a3578063f2fde38b146102b657600080fd5b80638da5cb5b14610216578063b1324f7b14610227578063c27a98401461024e578063d246a2a31461026157600080fd5b80635bb3a4b3116100de5780635bb3a4b314610195578063715018a6146101d45780637b5d2534146101dc5780637cb591921461020357600080fd5b806301e9bb9314610110578063029b85311461012f5780634eff24551461015d5780635840326014610180575b600080fd5b610118600581565b60405160ff90911681526020015b60405180910390f35b61014f61013d366004611097565b60026020526000908152604090205481565b604051908152602001610126565b61017061016b3660046110c9565b6102c9565b6040519015158152602001610126565b61019361018e3660046110fc565b610384565b005b6101bc7f000000000000000000000000000000000000000000000000000000000000000081565b6040516001600160a01b039091168152602001610126565b610193610848565b6101bc7f000000000000000000000000000000000000000000000000000000000000000081565b6101936102113660046110fc565b61085c565b6000546001600160a01b03166101bc565b6101bc7f000000000000000000000000000000000000000000000000000000000000000081565b61019361025c36600461113d565b610c77565b61014f60035481565b610193610278366004611158565b610cc9565b61019361028b366004611182565b610de1565b6004546101bc906001600160a01b031681565b61014f6102b1366004611097565b610f25565b6101936102c436600461113d565b610f64565b60007f00000000000000000000000000000000000000000000000000000000000000006001600160a01b0316634eff24558484600481111561030d5761030d611208565b6040516001600160e01b031960e085901b1681526001600160a01b03909216600483015260ff166024820152604401602060405180830381865afa158015610359573d6000803e3d6000fd5b505050506040513d601f19601f8201168201806040525081019061037d919061121e565b9392505050565b61038c610fa7565b61039582610fd1565b606081013533146103b85760405162570c9560e91b815260040160405180910390fd5b8160048111156103ca576103ca611208565b604051632beed50360e21b8152336004820152600160ff929092169190911b906001600160a01b037f0000000000000000000000000000000000000000000000000000000000000000169063afbb540c90602401602060405180830381865afa15801561043b573d6000803e3d6000fd5b505050506040513d601f19601f8201168201806040525081019061045f9190611240565b60ff16166000036104835760405163083cf91960e31b815260040160405180910390fd5b6004805460405163673448dd60e01b81526001600160a01b039182169281018390527f00000000000000000000000000000000000000000000000000000000000000009091169063673448dd90602401602060405180830381865afa1580156104f0573d6000803e3d6000fd5b505050506040513d601f19601f82011682018060405250810190610514919061121e565b6105315760405163eb489b5f60e01b815260040160405180910390fd5b7f00000000000000000000000000000000000000000000000000000000000000006001600160a01b031663d0d898dd6002600086600481111561057657610576611208565b600481111561058757610587611208565b815260200190815260200160002054846040518363ffffffff1660e01b81526004016105b4929190611263565b600060405180830381600087803b1580156105ce57600080fd5b505af11580156105e2573d6000803e3d6000fd5b505050507f00000000000000000000000000000000000000000000000000000000000000006001600160a01b031663e910321f3385600481111561062857610628611208565b6040516001600160e01b031960e085901b1681526001600160a01b03928316600482015260ff909116602482015290841660448201526064016020604051808303816000875af1158015610680573d6000803e3d6000fd5b505050506040513d601f19601f820116820180604052508101906106a491906112b1565b5060405163bf8ad29760e01b81526001600160a01b0382811660048301527f0000000000000000000000000000000000000000000000000000000000000000169063bf8ad29790602401600060405180830381600087803b15801561070857600080fd5b505af115801561071c573d6000803e3d6000fd5b505060038054600101905550839050600481111561073c5761073c611208565b337fb0c2c233722439470ea86a4cf1add6ba058890914660237ddfcd2ba7f934f2e57f00000000000000000000000000000000000000000000000000000000000000006001600160a01b0316635a45a08b838860048111156107a0576107a0611208565b6040516001600160e01b031960e085901b1681526001600160a01b03909216600483015260ff166024820152604401602060405180830381865afa1580156107ec573d6000803e3d6000fd5b505050506040513d601f19601f8201168201806040525081019061081091906112ca565b6040805167ffffffffffffffff90921682526001600160a01b03861660208301520160405180910390a35061084460018055565b5050565b610850611006565b61085a6000611033565b565b610864610fa7565b61086d82610fd1565b606081013533146108905760405162570c9560e91b815260040160405180910390fd5b7f00000000000000000000000000000000000000000000000000000000000000006001600160a01b0316634eff2455338460048111156108d2576108d2611208565b6040516001600160e01b031960e085901b1681526001600160a01b03909216600483015260ff166024820152604401602060405180830381865afa15801561091e573d6000803e3d6000fd5b505050506040513d601f19601f82011682018060405250810190610942919061121e565b156109605760405163724efe9160e01b815260040160405180910390fd5b6004805460405163673448dd60e01b81526001600160a01b039182169281018390527f00000000000000000000000000000000000000000000000000000000000000009091169063673448dd90602401602060405180830381865afa1580156109cd573d6000803e3d6000fd5b505050506040513d601f19601f820116820180604052508101906109f1919061121e565b610a0e5760405163eb489b5f60e01b815260040160405180910390fd5b7f00000000000000000000000000000000000000000000000000000000000000006001600160a01b031663d0d898dd60026000866004811115610a5357610a53611208565b6004811115610a6457610a64611208565b815260200190815260200160002054846040518363ffffffff1660e01b8152600401610a91929190611263565b600060405180830381600087803b158015610aab57600080fd5b505af1158015610abf573d6000803e3d6000fd5b5050505060007f00000000000000000000000000000000000000000000000000000000000000006001600160a01b031663e910321f33866004811115610b0757610b07611208565b6040516001600160e01b031960e085901b1681526001600160a01b03928316600482015260ff909116602482015290851660448201526064016020604051808303816000875af1158015610b5f573d6000803e3d6000fd5b505050506040513d601f19601f82011682018060405250810190610b8391906112b1565b60405163bf8ad29760e01b81526001600160a01b0384811660048301529192507f00000000000000000000000000000000000000000000000000000000000000009091169063bf8ad29790602401600060405180830381600087803b158015610beb57600080fd5b505af1158015610bff573d6000803e3d6000fd5b5050600380546001019055508490506004811115610c1f57610c1f611208565b604080518381528582013560208201526001600160a01b03851681830152905133917f977cd4e55736846f2e8ee3968ec2f4890d77245218e3736cb128593f75be45be919081900360600190a3505061084460018055565b610c7f611006565b600480546001600160a01b0319166001600160a01b0383169081179091556040517f0fe33710fb3503026c52c20042eb8bc77af16fa26dd71781c47b3b99b663b8e990600090a250565b610cd1611006565b610cda82610fd1565b7f00000000000000000000000000000000000000000000000000000000000000006001600160a01b0316631783efc360026000856004811115610d1f57610d1f611208565b6004811115610d3057610d30611208565b815260200190815260200160002054836040518363ffffffff1660e01b8152600401610d66929190918252602082015260400190565b600060405180830381600087803b158015610d8057600080fd5b505af1158015610d94573d6000803e3d6000fd5b50505050816004811115610daa57610daa611208565b6040518281527f5b25d1d2d76c44ea56b48ce9915e17c6c3d29c5acb706cb1e3697df5133c55d29060200160405180910390a25050565b610de9611006565b610df283610fd1565b7f00000000000000000000000000000000000000000000000000000000000000006001600160a01b0316630424537160026000866004811115610e3757610e37611208565b6004811115610e4857610e48611208565b81526020019081526020016000205484846040518463ffffffff1660e01b8152600401610e77939291906112f4565b600060405180830381600087803b158015610e9157600080fd5b505af1158015610ea5573d6000803e3d6000fd5b5050505060005b81811015610f1f57836004811115610ec657610ec6611208565b7f5b25d1d2d76c44ea56b48ce9915e17c6c3d29c5acb706cb1e3697df5133c55d2848484818110610ef957610ef9611335565b90506020020135604051610f0f91815260200190565b60405180910390a2600101610eac565b50505050565b600060026000836004811115610f3d57610f3d611208565b6004811115610f4e57610f4e611208565b8152602001908152602001600020549050919050565b610f6c611006565b6001600160a01b038116610f9b57604051631e4fbdf760e01b8152600060048201526024015b60405180910390fd5b610fa481611033565b50565b600260015403610fca57604051633ee5aeb560e01b815260040160405180910390fd5b6002600155565b6005816004811115610fe557610fe5611208565b60ff1610610fa4576040516369222ac360e11b815260040160405180910390fd5b6000546001600160a01b0316331461085a5760405163118cdaa760e01b8152336004820152602401610f92565b600080546001600160a01b038381166001600160a01b0319831681178455604051919092169283917f8be0079c531659141344cd1fd0a4f28419497f9722a3daafe3b4186f6b6457e09190a35050565b80356005811061109257600080fd5b919050565b6000602082840312156110a957600080fd5b61037d82611083565b80356001600160a01b038116811461109257600080fd5b600080604083850312156110dc57600080fd5b6110e5836110b2565b91506110f360208401611083565b90509250929050565b6000808284036101c081121561111157600080fd5b61111a84611083565b92506101a0601f198201121561112f57600080fd5b506020830190509250929050565b60006020828403121561114f57600080fd5b61037d826110b2565b6000806040838503121561116b57600080fd5b61117483611083565b946020939093013593505050565b60008060006040848603121561119757600080fd5b6111a084611083565b9250602084013567ffffffffffffffff808211156111bd57600080fd5b818601915086601f8301126111d157600080fd5b8135818111156111e057600080fd5b8760208260051b85010111156111f557600080fd5b6020830194508093505050509250925092565b634e487b7160e01b600052602160045260246000fd5b60006020828403121561123057600080fd5b8151801515811461037d57600080fd5b60006020828403121561125257600080fd5b815160ff8116811461037d57600080fd5b60006101c08201905083825282356020830152602083013560408301526040830135606083015260608301356080830152608083013560a083015261010060a0840160c08401379392505050565b6000602082840312156112c357600080fd5b5051919050565b6000602082840312156112dc57600080fd5b815167ffffffffffffffff8116811461037d57600080fd5b838152604060208201819052810182905260006001600160fb1b0383111561131b57600080fd5b8260051b8085606085013791909101606001949350505050565b634e487b7160e01b600052603260045260246000fdfea26469706673582212204ce4908bd2be933b095639a3645ac6475225567652469ebed6ebd8cd796a839564736f6c63430008180033",
  "linkReferences": {},
  "deployedLinkReferences": {}
}