{
  "_format": "hh-sol-artifact-1",
  "contractName": "MockGovernmentBondFund",
  "sourceName": "contracts/demo/MockGovernmentBondFund.sol",
  "abi": [
    {
      "inputs": [
        {
          "internalType": "address",
          "name": "_complianceSBT",
          "type": "address"
        },
        {
          "internalType": "address",
          "name": "_riskOracle",
          "type": "address"
        }
      ],
      "stateMutability": "nonpayable",
      "type": "constructor"
    },
    {
      "inputs": [
        {
          "internalType": "address",
          "name": "user",
          "type": "address"
        },
        {
          "internalType": "uint8",
          "name": "credentialTypeBit",
          "type": "uint8"
        }
      ],
      "name": "NotCompliant",
      "type": "error"
    },
    {
      "inputs": [
        {
          "internalType": "address",
          "name": "user",
          "type": "address"
        },
        {
          "internalType": "uint8",
          "name": "actualRisk",
          "type": "uint8"
        },
        {
          "internalType": "uint8",
          "name": "maxRisk",
          "type": "uint8"
        }
      ],
      "name": "RiskScoreTooHigh",
      "type": "error"
    },
    {
      "inputs": [
        {
          "internalType": "address",
          "name": "user",
          "type": "address"
        },
        {
          "internalType": "uint8",
          "name": "actualTier",
          "type": "uint8"
        },
        {
          "internalType": "uint8",
          "name": "requiredTier",
          "type": "uint8"
        }
      ],
      "name": "TierTooLow",
      "type": "error"
    },
    {
      "anonymous": false,
      "inputs": [
        {
          "indexed": true,
          "internalType": "address",
          "name": "investor",
          "type": "address"
        },
        {
          "indexed": false,
          "internalType": "uint256",
          "name": "amount",
          "type": "uint256"
        },
        {
          "indexed": false,
          "internalType": "uint256",
          "name": "totalDeposits",
          "type": "uint256"
        }
      ],
      "name": "Deposited",
      "type": "event"
    },
    {
      "anonymous": false,
      "inputs": [
        {
          "indexed": true,
          "internalType": "address",
          "name": "user",
          "type": "address"
        },
        {
          "indexed": true,
          "internalType": "address",
          "name": "protocol",
          "type": "address"
        },
        {
          "indexed": false,
          "internalType": "uint8",
          "name": "requiredTier",
          "type": "uint8"
        },
        {
          "indexed": false,
          "internalType": "uint8",
          "name": "riskScore",
          "type": "uint8"
        },
        {
          "indexed": false,
          "internalType": "bytes32",
          "name": "context",
          "type": "bytes32"
        }
      ],
      "name": "RollbackAwareComplianceCheck",
      "type": "event"
    },
    {
      "anonymous": false,
      "inputs": [
        {
          "indexed": true,
          "internalType": "address",
          "name": "investor",
          "type": "address"
        },
        {
          "indexed": false,
          "internalType": "uint256",
          "name": "amount",
          "type": "uint256"
        }
      ],
      "name": "Withdrawn",
      "type": "event"
    },
    {
      "inputs": [],
      "name": "ASSET_NAME",
      "outputs": [
        {
          "internalType": "string",
          "name": "",
          "type": "string"
        }
      ],
      "stateMutability": "view",
      "type": "function"
    },
    {
      "inputs": [],
      "name": "MOCK_APY_BPS",
      "outputs": [
        {
          "internalType": "uint256",
          "name": "",
          "type": "uint256"
        }
      ],
      "stateMutability": "view",
      "type": "function"
    },
    {
      "inputs": [],
      "name": "complianceSBT",
      "outputs": [
        {
          "internalType": "contract IComplianceSBT",
          "name": "",
          "type": "address"
        }
      ],
      "stateMutability": "view",
      "type": "function"
    },
    {
      "inputs": [],
      "name": "deposit",
      "outputs": [],
      "stateMutability": "payable",
      "type": "function"
    },
    {
      "inputs": [
        {
          "internalType": "address",
          "name": "",
          "type": "address"
        }
      ],
      "name": "deposits",
      "outputs": [
        {
          "internalType": "uint256",
          "name": "",
          "type": "uint256"
        }
      ],
      "stateMutability": "view",
      "type": "function"
    },
    {
      "inputs": [],
      "name": "getPoolInfo",
      "outputs": [
        {
          "internalType": "string",
          "name": "assetName",
          "type": "string"
        },
        {
          "internalType": "uint256",
          "name": "apy",
          "type": "uint256"
        },
        {
          "internalType": "uint256",
          "name": "tvl",
          "type": "uint256"
        },
        {
          "internalType": "uint256",
          "name": "investors",
          "type": "uint256"
        },
        {
          "internalType": "uint8",
          "name": "requiredTier",
          "type": "uint8"
        }
      ],
      "stateMutability": "view",
      "type": "function"
    },
    {
      "inputs": [
        {
          "internalType": "address",
          "name": "user",
          "type": "address"
        },
        {
          "internalType": "uint8",
          "name": "credTypeBit",
          "type": "uint8"
        }
      ],
      "name": "isCompliant",
      "outputs": [
        {
          "internalType": "bool",
          "name": "",
          "type": "bool"
        }
      ],
      "stateMutability": "view",
      "type": "function"
    },
    {
      "inputs": [],
      "name": "riskOracle",
      "outputs": [
        {
          "internalType": "contract AIRiskOracle",
          "name": "",
          "type": "address"
        }
      ],
      "stateMutability": "view",
      "type": "function"
    },
    {
      "inputs": [],
      "name": "totalDeposits",
      "outputs": [
        {
          "internalType": "uint256",
          "name": "",
          "type": "uint256"
        }
      ],
      "stateMutability": "view",
      "type": "function"
    },
    {
      "inputs": [],
      "name": "totalInvestors",
      "outputs": [
        {
          "internalType": "uint256",
          "name": "",
          "type": "uint256"
        }
      ],
      "stateMutability": "view",
      "type": "function"
    },
    {
      "inputs": [],
      "name": "withdraw",
      "outputs": [],
      "stateMutability": "nonpayable",
      "type": "function"
    }
  ],
  "bytecode": "0x60c060405234801561001057600080fd5b5060405161088238038061088283398101604081905261002f91610062565b6001600160a01b039182166080521660a052610095565b80516001600160a01b038116811461005d57600080fd5b919050565b6000806040838503121561007557600080fd5b61007e83610046565b915061008c60208401610046565b90509250929050565b60805160a0516107bb6100c760003960006101eb01526000818160dc015281816103a7015261044001526107bb6000f3fe60806040526004361061009c5760003560e01c80637a05b4e7116100645780637a05b4e7146101755780637d8820971461018b57806384318915146101a1578063d0e30db0146101d1578063d50507fd146101d9578063fc7e286d1461020d57600080fd5b806329b8caff146100a15780633c83c2b7146100ca5780633ccfd60b14610116578063590fa6ca1461012d57806360246c881461014f575b600080fd5b3480156100ad57600080fd5b506100b760025481565b6040519081526020015b60405180910390f35b3480156100d657600080fd5b506100fe7f000000000000000000000000000000000000000000000000000000000000000081565b6040516001600160a01b0390911681526020016100c1565b34801561012257600080fd5b5061012b61023a565b005b34801561013957600080fd5b50610142610324565b6040516100c19190610615565b34801561015b57600080fd5b50610164610340565b6040516100c1959493929190610628565b34801561018157600080fd5b506100b76101c281565b34801561019757600080fd5b506100b760015481565b3480156101ad57600080fd5b506101c16101bc366004610690565b61037c565b60405190151581526020016100c1565b61012b61041d565b3480156101e557600080fd5b506100fe7f000000000000000000000000000000000000000000000000000000000000000081565b34801561021957600080fd5b506100b76102283660046106c7565b60006020819052908152604090205481565b33600090815260208190526040902054806102955760405162461bcd60e51b81526020600482015260166024820152754e6f206465706f73697420746f20776974686472617760501b60448201526064015b60405180910390fd5b336000908152602081905260408120819055600180548392906102b99084906106f8565b9091555050604051339082156108fc029083906000818181858888f193505050501580156102eb573d6000803e3d6000fd5b5060405181815233907f7084f5476618d8e60b11ef0d7d3f06914655adb8793e28ff7f018d4c76d505d59060200160405180910390a250565b6040518060600160405280602181526020016107656021913981565b60606000806000806040518060600160405280602181526020016107656021913960015460025491976101c29750909550909350600392509050565b604051634eff245560e01b81526001600160a01b03838116600483015260ff831660248301526000917f000000000000000000000000000000000000000000000000000000000000000090911690634eff245590604401602060405180830381865afa1580156103f0573d6000803e3d6000fd5b505050506040513d601f19601f82011682018060405250810190610414919061070b565b90505b92915050565b604051635a2d572960e11b81523360048201526003906000906001600160a01b037f0000000000000000000000000000000000000000000000000000000000000000169063b45aae5290602401602060405180830381865afa158015610487573d6000803e3d6000fd5b505050506040513d601f19601f820116820180604052508101906104ab9190610734565b90508160ff168160ff1610156104e757604051639742a8f160e01b815233600482015260ff80831660248301528316604482015260640161028c565b6000341161052a5760405162461bcd60e51b815260206004820152601060248201526f04d757374206465706f736974203e20360841b604482015260640161028c565b33600090815260208190526040812054900361054a576002805460010190555b3360009081526020819052604081208054349290610569908490610751565b9250508190555034600160008282546105829190610751565b909155505060015460405133917f73a19dd210f1a7f902193214c0ee91dd35ee5b4d920cba8d519eca65a7b488ca916105c391348252602082015260400190565b60405180910390a25050565b6000815180845260005b818110156105f5576020818501810151868301820152016105d9565b506000602082860101526020601f19601f83011685010191505092915050565b60208152600061041460208301846105cf565b60a08152600061063b60a08301886105cf565b905085602083015284604083015283606083015260ff831660808301529695505050505050565b80356001600160a01b038116811461067957600080fd5b919050565b60ff8116811461068d57600080fd5b50565b600080604083850312156106a357600080fd5b6106ac83610662565b915060208301356106bc8161067e565b809150509250929050565b6000602082840312156106d957600080fd5b61041482610662565b634e487b7160e01b600052601160045260246000fd5b81810381811115610417576104176106e2565b60006020828403121561071d57600080fd5b8151801515811461072d57600080fd5b9392505050565b60006020828403121561074657600080fd5b815161072d8161067e565b80820180821115610417576104176106e256fe484b20546f6b656e697a656420476f7665726e6d656e7420426f6e642046756e64a2646970667358221220f36ca1e52aef59512dccc4d97bfd2fce575358904b806a5d2d3f75b46e38f22e64736f6c63430008180033",
  "linkReferences": {},
  "deployedLinkReferences": {}
}