{
  "_format": "hh-sol-artifact-1",
  "contractName": "MockCreditFacility",
  "sourceName": "contracts/demo/MockCreditFacility.sol",
  "abi": [
    {
      "inputs": [
        {
          "internalType": "address",
          "name": "_complianceSBT",
          "type": "address"
        },
        {
          "internalType": "address",
          "name": "_riskOracle",
          "type": "address"
        }
      ],
      "stateMutability": "nonpayable",
      "type": "constructor"
    },
    {
      "inputs": [
        {
          "internalType": "address",
          "name": "user",
          "type": "address"
        },
        {
          "internalType": "uint8",
          "name": "credentialTypeBit",
          "type": "uint8"
        }
      ],
      "name": "NotCompliant",
      "type": "error"
    },
    {
      "inputs": [
        {
          "internalType": "address",
          "name": "user",
          "type": "address"
        },
        {
          "internalType": "uint8",
          "name": "actualRisk",
          "type": "uint8"
        },
        {
          "internalType": "uint8",
          "name": "maxRisk",
          "type": "uint8"
        }
      ],
      "name": "RiskScoreTooHigh",
      "type": "error"
    },
    {
      "inputs": [
        {
          "internalType": "address",
          "name": "user",
          "type": "address"
        },
        {
          "internalType": "uint8",
          "name": "actualTier",
          "type": "uint8"
        },
        {
          "internalType": "uint8",
          "name": "requiredTier",
          "type": "uint8"
        }
      ],
      "name": "TierTooLow",
      "type": "error"
    },
    {
      "anonymous": false,
      "inputs": [
        {
          "indexed": true,
          "internalType": "address",
          "name": "borrower",
          "type": "address"
        },
        {
          "indexed": false,
          "internalType": "uint256",
          "name": "limit",
          "type": "uint256"
        },
        {
          "indexed": false,
          "internalType": "uint8",
          "name": "riskScore",
          "type": "uint8"
        }
      ],
      "name": "CreditApproved",
      "type": "event"
    },
    {
      "anonymous": false,
      "inputs": [
        {
          "indexed": true,
          "internalType": "address",
          "name": "user",
          "type": "address"
        },
        {
          "indexed": true,
          "internalType": "address",
          "name": "protocol",
          "type": "address"
        },
        {
          "indexed": false,
          "internalType": "uint8",
          "name": "requiredTier",
          "type": "uint8"
        },
        {
          "indexed": false,
          "internalType": "uint8",
          "name": "riskScore",
          "type": "uint8"
        },
        {
          "indexed": false,
          "internalType": "bytes32",
          "name": "context",
          "type": "bytes32"
        }
      ],
      "name": "RollbackAwareComplianceCheck",
      "type": "event"
    },
    {
      "inputs": [],
      "name": "applicants",
      "outputs": [
        {
          "internalType": "uint256",
          "name": "",
          "type": "uint256"
        }
      ],
      "stateMutability": "view",
      "type": "function"
    },
    {
      "inputs": [
        {
          "internalType": "uint256",
          "name": "amount",
          "type": "uint256"
        }
      ],
      "name": "applyForCredit",
      "outputs": [],
      "stateMutability": "nonpayable",
      "type": "function"
    },
    {
      "inputs": [],
      "name": "complianceSBT",
      "outputs": [
        {
          "internalType": "contract IComplianceSBT",
          "name": "",
          "type": "address"
        }
      ],
      "stateMutability": "view",
      "type": "function"
    },
    {
      "inputs": [
        {
          "internalType": "address",
          "name": "",
          "type": "address"
        }
      ],
      "name": "creditLimit",
      "outputs": [
        {
          "internalType": "uint256",
          "name": "",
          "type": "uint256"
        }
      ],
      "stateMutability": "view",
      "type": "function"
    },
    {
      "inputs": [],
      "name": "getFacilityInfo",
      "outputs": [
        {
          "internalType": "uint256",
          "name": "totalApproved",
          "type": "uint256"
        },
        {
          "internalType": "uint256",
          "name": "averageRiskScore",
          "type": "uint256"
        },
        {
          "internalType": "uint8",
          "name": "requiredTier",
          "type": "uint8"
        },
        {
          "internalType": "uint8",
          "name": "maxRisk",
          "type": "uint8"
        }
      ],
      "stateMutability": "view",
      "type": "function"
    },
    {
      "inputs": [
        {
          "internalType": "address",
          "name": "user",
          "type": "address"
        },
        {
          "internalType": "uint8",
          "name": "credTypeBit",
          "type": "uint8"
        }
      ],
      "name": "isCompliant",
      "outputs": [
        {
          "internalType": "bool",
          "name": "",
          "type": "bool"
        }
      ],
      "stateMutability": "view",
      "type": "function"
    },
    {
      "inputs": [],
      "name": "riskOracle",
      "outputs": [
        {
          "internalType": "contract AIRiskOracle",
          "name": "",
          "type": "address"
        }
      ],
      "stateMutability": "view",
      "type": "function"
    },
    {
      "inputs": [],
      "name": "riskScoreAccumulator",
      "outputs": [
        {
          "internalType": "uint256",
          "name": "",
          "type": "uint256"
        }
      ],
      "stateMutability": "view",
      "type": "function"
    },
    {
      "inputs": [],
      "name": "totalCreditsApproved",
      "outputs": [
        {
          "internalType": "uint256",
          "name": "",
          "type": "uint256"
        }
      ],
      "stateMutability": "view",
      "type": "function"
    }
  ],
  "bytecode": "0x60c060405234801561001057600080fd5b506040516107da3803806107da83398101604081905261002f91610062565b6001600160a01b039182166080521660a052610095565b80516001600160a01b038116811461005d57600080fd5b919050565b6000806040838503121561007557600080fd5b61007e83610046565b915061008c60208401610046565b90509250929050565b60805160a0516107046100d6600039600081816101810152818161037e01526104aa0152600081816101010152818161021e01526102ba01526107046000f3fe608060405234801561001057600080fd5b50600436106100935760003560e01c806384318915116100665780638431891514610144578063d03604cf14610167578063d50507fd1461017c578063e2695ac0146101a3578063fdf5963a146101ac57600080fd5b80631f429f50146100985780632f6d9812146100cb5780633c83c2b7146100fc578063537d4e921461013b575b600080fd5b6100b86100a63660046105c8565b60006020819052908152604090205481565b6040519081526020015b60405180910390f35b6100d36101b5565b60408051948552602085019390935260ff918216928401929092521660608201526080016100c2565b6101237f000000000000000000000000000000000000000000000000000000000000000081565b6040516001600160a01b0390911681526020016100c2565b6100b860025481565b6101576101523660046105f5565b6101f3565b60405190151581526020016100c2565b61017a61017536600461062c565b610294565b005b6101237f000000000000000000000000000000000000000000000000000000000000000081565b6100b860015481565b6100b860035481565b60008060008060006003546000146101dc576003546002546101d79190610645565b6101df565b60005b600154969095506002945060329350915050565b604051634eff245560e01b81526001600160a01b03838116600483015260ff831660248301526000917f000000000000000000000000000000000000000000000000000000000000000090911690634eff245590604401602060405180830381865afa158015610267573d6000803e3d6000fd5b505050506040513d601f19601f8201168201806040525081019061028b9190610667565b90505b92915050565b604051635a2d572960e11b81523360048201526002906032906000906001600160a01b037f0000000000000000000000000000000000000000000000000000000000000000169063b45aae5290602401602060405180830381865afa158015610301573d6000803e3d6000fd5b505050506040513d601f19601f820116820180604052508101906103259190610690565b90508260ff168160ff16101561036657604051639742a8f160e01b815233600482015260ff8083166024830152841660448201526064015b60405180910390fd5b60405163dc08706d60e01b81523360048201526000907f00000000000000000000000000000000000000000000000000000000000000006001600160a01b03169063dc08706d90602401602060405180830381865afa1580156103cd573d6000803e3d6000fd5b505050506040513d601f19601f820116820180604052508101906103f19190610690565b90508260ff168160ff16111561042d57604051634097b88560e11b815233600482015260ff80831660248301528416604482015260640161035d565b600085116104725760405162461bcd60e51b81526020600482015260126024820152710416d6f756e74206d757374206265203e20360741b604482015260640161035d565b336000908152602081905260408120549003610492576003805460010190555b60405163dc08706d60e01b81523360048201526000907f00000000000000000000000000000000000000000000000000000000000000006001600160a01b03169063dc08706d90602401602060405180830381865afa1580156104f9573d6000803e3d6000fd5b505050506040513d601f19601f8201168201806040525081019061051d9190610690565b3360009081526020819052604081208890556001805492935088929091906105469084906106ad565b925050819055508060ff166002600082825461056291906106ad565b90915550506040805187815260ff8316602082015233917f2661ca496a64dedb4eb220cd05d0704eb3e3da5f493b7e962481495837e02164910160405180910390a2505050505050565b80356001600160a01b03811681146105c357600080fd5b919050565b6000602082840312156105da57600080fd5b61028b826105ac565b60ff811681146105f257600080fd5b50565b6000806040838503121561060857600080fd5b610611836105ac565b91506020830135610621816105e3565b809150509250929050565b60006020828403121561063e57600080fd5b5035919050565b60008261066257634e487b7160e01b600052601260045260246000fd5b500490565b60006020828403121561067957600080fd5b8151801515811461068957600080fd5b9392505050565b6000602082840312156106a257600080fd5b8151610689816105e3565b8082018082111561028e57634e487b7160e01b600052601160045260246000fdfea2646970667358221220ee507250dfe677b72684b9da5fcbf097d14f564220f55909a1e1947c250d0fe364736f6c63430008180033",
  "linkReferences": {},
  "deployedLinkReferences": {}
}