{
  "_format": "hh-sol-artifact-1",
  "contractName": "MockStablecoinMint",
  "sourceName": "contracts/demo/MockStablecoinMint.sol",
  "abi": [
    {
      "inputs": [
        {
          "internalType": "address",
          "name": "_complianceSBT",
          "type": "address"
        },
        {
          "internalType": "address",
          "name": "_riskOracle",
          "type": "address"
        }
      ],
      "stateMutability": "nonpayable",
      "type": "constructor"
    },
    {
      "inputs": [
        {
          "internalType": "address",
          "name": "user",
          "type": "address"
        },
        {
          "internalType": "uint8",
          "name": "credentialTypeBit",
          "type": "uint8"
        }
      ],
      "name": "NotCompliant",
      "type": "error"
    },
    {
      "inputs": [
        {
          "internalType": "address",
          "name": "user",
          "type": "address"
        },
        {
          "internalType": "uint8",
          "name": "actualRisk",
          "type": "uint8"
        },
        {
          "internalType": "uint8",
          "name": "maxRisk",
          "type": "uint8"
        }
      ],
      "name": "RiskScoreTooHigh",
      "type": "error"
    },
    {
      "inputs": [
        {
          "internalType": "address",
          "name": "user",
          "type": "address"
        },
        {
          "internalType": "uint8",
          "name": "actualTier",
          "type": "uint8"
        },
        {
          "internalType": "uint8",
          "name": "requiredTier",
          "type": "uint8"
        }
      ],
      "name": "TierTooLow",
      "type": "error"
    },
    {
      "anonymous": false,
      "inputs": [
        {
          "indexed": true,
          "internalType": "address",
          "name": "user",
          "type": "address"
        },
        {
          "indexed": true,
          "internalType": "address",
          "name": "protocol",
          "type": "address"
        },
        {
          "indexed": false,
          "internalType": "uint8",
          "name": "requiredTier",
          "type": "uint8"
        },
        {
          "indexed": false,
          "internalType": "uint8",
          "name": "riskScore",
          "type": "uint8"
        },
        {
          "indexed": false,
          "internalType": "bytes32",
          "name": "context",
          "type": "bytes32"
        }
      ],
      "name": "RollbackAwareComplianceCheck",
      "type": "event"
    },
    {
      "anonymous": false,
      "inputs": [
        {
          "indexed": true,
          "internalType": "address",
          "name": "minter",
          "type": "address"
        },
        {
          "indexed": false,
          "internalType": "uint256",
          "name": "amount",
          "type": "uint256"
        }
      ],
      "name": "StablecoinMinted",
      "type": "event"
    },
    {
      "inputs": [],
      "name": "complianceSBT",
      "outputs": [
        {
          "internalType": "contract IComplianceSBT",
          "name": "",
          "type": "address"
        }
      ],
      "stateMutability": "view",
      "type": "function"
    },
    {
      "inputs": [],
      "name": "getMintInfo",
      "outputs": [
        {
          "internalType": "uint256",
          "name": "totalMintedSupply",
          "type": "uint256"
        },
        {
          "internalType": "uint256",
          "name": "minters",
          "type": "uint256"
        },
        {
          "internalType": "uint8",
          "name": "requiredTier",
          "type": "uint8"
        }
      ],
      "stateMutability": "view",
      "type": "function"
    },
    {
      "inputs": [
        {
          "internalType": "address",
          "name": "user",
          "type": "address"
        },
        {
          "internalType": "uint8",
          "name": "credTypeBit",
          "type": "uint8"
        }
      ],
      "name": "isCompliant",
      "outputs": [
        {
          "internalType": "bool",
          "name": "",
          "type": "bool"
        }
      ],
      "stateMutability": "view",
      "type": "function"
    },
    {
      "inputs": [
        {
          "internalType": "uint256",
          "name": "amount",
          "type": "uint256"
        }
      ],
      "name": "mintStablecoin",
      "outputs": [],
      "stateMutability": "nonpayable",
      "type": "function"
    },
    {
      "inputs": [
        {
          "internalType": "address",
          "name": "",
          "type": "address"
        }
      ],
      "name": "mintedAmount",
      "outputs": [
        {
          "internalType": "uint256",
          "name": "",
          "type": "uint256"
        }
      ],
      "stateMutability": "view",
      "type": "function"
    },
    {
      "inputs": [],
      "name": "riskOracle",
      "outputs": [
        {
          "internalType": "contract AIRiskOracle",
          "name": "",
          "type": "address"
        }
      ],
      "stateMutability": "view",
      "type": "function"
    },
    {
      "inputs": [],
      "name": "totalMinted",
      "outputs": [
        {
          "internalType": "uint256",
          "name": "",
          "type": "uint256"
        }
      ],
      "stateMutability": "view",
      "type": "function"
    },
    {
      "inputs": [],
      "name": "uniqueMinters",
      "outputs": [
        {
          "internalType": "uint256",
          "name": "",
          "type": "uint256"
        }
      ],
      "stateMutability": "view",
      "type": "function"
    }
  ],
  "bytecode": "0x60c060405234801561001057600080fd5b506040516105da3803806105da83398101604081905261002f91610062565b6001600160a01b039182166080521660a052610095565b80516001600160a01b038116811461005d57600080fd5b919050565b6000806040838503121561007557600080fd5b61007e83610046565b915061008c60208401610046565b90509250929050565b60805160a0516105136100c7600039600061014f0152600081816092015281816101bc015261025501526105136000f3fe608060405234801561001057600080fd5b50600436106100885760003560e01c8063a7ee359a1161005b578063a7ee359a14610120578063d0520c2314610129578063d50507fd1461014a578063fbbf8cc31461017157600080fd5b80633c83c2b71461008d57806384318915146100d1578063a0b4dbb1146100f4578063a2309ff814610109575b600080fd5b6100b47f000000000000000000000000000000000000000000000000000000000000000081565b6040516001600160a01b0390911681526020015b60405180910390f35b6100e46100df36600461040b565b610191565b60405190151581526020016100c8565b610107610102366004610442565b610232565b005b61011260015481565b6040519081526020016100c8565b61011260025481565b600154600280546040805193845260208401919091528201526060016100c8565b6100b47f000000000000000000000000000000000000000000000000000000000000000081565b61011261017f36600461045b565b60006020819052908152604090205481565b604051634eff245560e01b81526001600160a01b03838116600483015260ff831660248301526000917f000000000000000000000000000000000000000000000000000000000000000090911690634eff245590604401602060405180830381865afa158015610205573d6000803e3d6000fd5b505050506040513d601f19601f820116820180604052508101906102299190610476565b90505b92915050565b604051635a2d572960e11b81523360048201526002906000906001600160a01b037f0000000000000000000000000000000000000000000000000000000000000000169063b45aae5290602401602060405180830381865afa15801561029c573d6000803e3d6000fd5b505050506040513d601f19601f820116820180604052508101906102c0919061049f565b90508160ff168160ff16101561030157604051639742a8f160e01b815233600482015260ff8083166024830152831660448201526064015b60405180910390fd5b600083116103465760405162461bcd60e51b81526020600482015260126024820152710416d6f756e74206d757374206265203e20360741b60448201526064016102f8565b336000908152602081905260408120549003610366576002805460010190555b33600090815260208190526040812080548592906103859084906104bc565b92505081905550826001600082825461039e91906104bc565b909155505060405183815233907fb62709b93689632d1518eaa3c90dd530ad99c37fbd21c13670b6f385eaf9b60d9060200160405180910390a2505050565b80356001600160a01b03811681146103f457600080fd5b919050565b60ff8116811461040857600080fd5b50565b6000806040838503121561041e57600080fd5b610427836103dd565b91506020830135610437816103f9565b809150509250929050565b60006020828403121561045457600080fd5b5035919050565b60006020828403121561046d57600080fd5b610229826103dd565b60006020828403121561048857600080fd5b8151801515811461049857600080fd5b9392505050565b6000602082840312156104b157600080fd5b8151610498816103f9565b8082018082111561022c57634e487b7160e01b600052601160045260246000fdfea2646970667358221220d4f2d194e51d4845be271a6ad7fb4a6e3c403ad285c66e599e18e1e5520f159664736f6c63430008180033",
  "linkReferences": {},
  "deployedLinkReferences": {}
}